:020000040800F2
:10000000C8520020850200088F2400087B220008C7
:100010008D240008B5030008092D00080000000029
:10002000000000000000000000000000C501000802
:10003000D50400080000000021020008092700087C
:100040009F0200089F0200089F0200089F0200080C
:100050009F0200089F0200089F0200089F020008FC
:100060009F0200089F0200089F0200089F020008EC
:10007000010400089F0200080D0400089F02000808
:1000800019040008250400089F0200089F020008C8
:10009000B90300089F0200089F0200089F020008A1
:1000A0009F0200089F0200089F0200089F020008AC
:1000B000C9270008D52700089F0200089F020008F2
:1000C0009F0200089F0200089F0200089F0200088C
:1000D0009F0200089F020008F12C0008FD2C000878
:1000E0009F0200089F0200089F0200089F0200086C
:1000F0009F0200089F0200089F0200089F0200085C
:100100009F0200089F0200089F0200089F0200084B
:100110009F0200089F0200089F0200089F0200083B
:100120009F0200089F0200089F0200089F0200082B
:100130009F0200089F0200089F0200089F0200081B
:100140009F0200089F0200089F0200089F0200080B
:100150009F0200089F0200089F0200089F020008FB
:100160009F0200089F0200089F0200089F020008EB
:100170009F0200089F0200089F0200080000000084
:100180009F0200089F0200089F0200089F020008CB
:100190009F0200089F0200089F0200089F020008BB
:1001A0009F0200089F0200089F020008DFF810D09D
:1001B00000F0EEF800480047012E0008AFF3008081
:1001C000C85200202C4B19680868B0E8F04F80F343
:1001D0000988BFF36F8F4FF0000080F311887047DC
:1001E0000000000008480068006880F308884FF0AD
:1001F000000080F3148862B661B6BFF34F8FBFF37F
:100200006F8F00DF00BF00BF08ED00E0DFF80C00DB
:10021000016841F470010160704700BF88ED00E0A3
:10022000EFF30980BFF36F8F134B1A681EF0100FA6
:1002300008BF20ED108A20E9F04F106009B44FF09C
:10024000500080F31188BFF34F8FBFF36F8F03F01F
:10025000D9FD4FF0000080F3118809BC19680868C7
:10026000B0E8F04F1EF0100F08BFB0EC108A80F31A
:100270000988BFF36F8F704720000020EFF30580DF
:10028000704700000648804706480047FEE7FEE743
:10029000FEE7FEE7FEE7FEE7FEE7FEE7FEE7FEE736
:1002A000B9270008AD0100082DE9F05F05460020E0
:1002B00092469B4688460646814640241BE02846D7
:1002C00041464746224600F053F853465A46C01A64
:1002D000914110D311461846224600F03AF82D1AE3
:1002E00067EB01084F4622460120002100F031F85B
:1002F00017EB00094E41201EA4F10104DFDC484643
:1003000031462A464346BDE8F09F40EA01039B0779
:1003100003D009E008C9121F08C0042AFAD203E07A
:1003200011F8013B00F8013B521EF9D27047D2B2DE
:1003300001E000F8012B491EFBD270470022F6E7CE
:1003400010B513460A4604461946FFF7F0FF20464B
:1003500010BD202A04DB203A00FA02F10020704789
:100360009140C2F1200320FA03F3194390407047F3
:10037000202A04DB203A21FA02F00021704721FAFA
:1003800002F3D040C2F12002914008431946704761
:10039000064C074D06E0E06840F0010394E80700D2
:1003A00098471034AC42F6D3FFF704FF784C0008AE
:1003B000984C0008FEE70000014800F024BA000055
:1003C000B400002000B58BB000200121CDE906016A
:1003D00008910090019002900390059004900E20E7
:1003E00009906946054800F00DF9044800F008FC42
:1003F0000221024800F08CF80BB000BDB4000020D0
:10040000014800F08BBC000074020020014800F09D
:1004100085BC0000D4020020014800F07FBC000031
:10042000B4010020014800F079BC00001402002053
:1004300001681823CAB2103AB2FBF3F2054B6FF30E
:100440000901032A9B5CC36500D9091D8165084623
:1004500070470000244C000810B5014600208B694D
:100460008A6A4FF0C07453B1B3F5005F15D072B112
:10047000012A0CD0022A0AD0032A09D104E01AB1B9
:10048000012A06D0022A03D1C96AC90100D5012078
:1004900010BDC96AA142FAD010BD002AF7D0012AC6
:1004A000F2D0022AF3D0032AF3D010BD30B504688D
:1004B000256825F480252560046863608368402BE7
:1004C000036803D099600068C26030BD9A6000681C
:1004D000C16030BD704772B6FEE770B50C46054688
:1004E000002208E0A85CFF2803D1A818417855290C
:1004F00005D0521C92B2101DA042F3D970BD0179F3
:100500005618361DA642F9D802F076F8B2B2F2E7D4
:1005100090F82020012A07D0022A05D0416A41F430
:100520008021416201207047006842690A434261AC
:1005300000207047F0B590F820500468A468012DA1
:1005400005D0022D03D0416A41F4802157E014F018
:10055000406F01D1E5004FD5C4F301640125A540EA
:100560001D608D684FF4C0739DB1CE6835434E68F1
:1005700045EAC605066803EB0417F5514FF4C2754A
:10058000076805EB04150E697E51097D012905D028
:1005900009E00E88CD6845EA4655EBE701684E59FB
:1005A00046F480764E511179D579567941EA056144
:1005B00095792D0445EA062529434FF4C67605684A
:1005C00006EB0416A9511178D57841EA05619578B2
:1005D00052782D0445EA022211434FF4C475026893
:1005E00005EB04155151006803EB0411425842F029
:1005F000010242500020F0BD416A41F40011416205
:100600000120F0BD10B590F82020012A07D0022A61
:1006100005D0416A41F480214162012010BD3B4870
:10062000D0F8002242F00102C0F80022D0F80022E7
:1006300022F47C52C0F80022D0F800224B6A42EA31
:100640000322C0F800220A7D02F01F0301229A4013
:10065000D0F81C329343C0F81C32CB69B3B9D0F840
:100660000C329343C0F80C328C894B6864F31F43FF
:100670004C6900EBC404C4F840320C890B6864F385
:100680001F434C6900EBC404C4F84432CB69012B0E
:1006900016D1D0F80C321343C0F80C320C884B68DA
:1006A00064F31F434C6900EBC404C4F840320C8966
:1006B000CB6864F31F434C6900EBC404C4F84432B4
:1006C0008B69002BD0F804320ED01343C0F80432EB
:1006D0000B69002BD0F8143208D01343C0F8143241
:1006E000096A012904D008E09343EFE79343F5E753
:1006F000D0F81C121143C0F81C12D0F8001221F0DF
:100700000101C0F80012002010BD0000006400408C
:10071000704770B590F82040012C05D0022C03D012
:10072000416A41F4802128E0046809B32469A407E0
:1007300020D04FF4D874056804EB01142D5915F03E
:100740000405956005682D591AD0ED0855600568B7
:100750002C5904F00204D4604FF4DA74056804EBF9
:1007600001142E5906F00F06082E0CD308250DE0B3
:10077000E468DCE7416A41F400114162012070BD88
:100780006D0D1560E3E72D5905F00F05156105683E
:100790002D59C5F30725956105682C59240C546122
:1007A0004FF4DC72046802EB0112A4581C70046858
:1007B000A458240A5C700468A458240C9C70046833
:1007C000A258120EDA704FF4DE72046802EB0112C6
:1007D000A4581C710468A458240A5C710468A458C5
:1007E000240C9C710468A258120EDA71006829B1B9
:1007F000016941F020010161002070BDC16841F034
:100800002001C160F8E72DE9F05F0546006800248B
:100810004669D0F804908768D0F80CB0D0F810A0E2
:10082000D0F81880F10748D0F90714D00121816071
:10083000B80703D5284600F010FA0CE0780702D577
:100840004FF4006407E0380702D54FF4805402E00B
:10085000284600F001FAF80516D529684FF4807093
:100860008860B80503D5284600F0F9F90CE0780552
:1008700002D544F4005407E0380502D544F480441E
:1008800002E0284600F0EAF9F80316D529684FF48B
:1008900080308860B80303D5284600F0E2F90CE008
:1008A000780302D544F4004407E0380302D544F449
:1008B000803402E0284600F0D3F9300707D55FEA1C
:1008C000CB6004D52968102044F40074C860700718
:1008D0004FF0080707D55FEA0B7004D52868C7609A
:1008E000284600F057F9B00706D52868C068800789
:1008F00002D0284600F050F9700607D55FEACA60BA
:1009000004D52968102044F480640861B00607D536
:100910005FEA0A7004D528680761284600F06CF980
:10092000F00606D528680069800702D0284600F046
:1009300064F9B00308D55FEAC96005D529681020BD
:100940004860284600F05AF9F00307D55FEA0970BD
:1009500004D528684760284600F084F9300446D55D
:100960005FEA497040D5F00504D55FEAC87001D050
:1009700044F00104B00504D55FEA887001D544F065
:100980000204700504D55FEA487001D544F0040400
:10099000300529D518F0700F26D008F070004028D7
:1009A00015D006DC102809D020280AD0302816D10E
:1009B0000AE050280ED0602811D10EE044F008045F
:1009C0000DE044F010040AE044F0200407E044F095
:1009D000400404E044F0800401E044F4807428689A
:1009E000816921F070018161296804204860002C30
:1009F00005D0686A204368622846FFF789FEBDE893
:100A0000F09F70B5040003D094F8200010B104E00A
:100A1000012070BD204600F081F82068016841F097
:100A20000101016000F006FC0546052604E000F027
:100A300001FC401B0A2811D820684068C007F6D086
:100A40002068016821F00201016000F0F3FB054617
:100A50000BE000F0EFFB401B0A2806D9606A40F467
:100A60000030606284F82060D2E720684068800728
:100A7000EFD4207E0128206801683DD021F080015C
:100A80000160607E01282068016838D021F04001B3
:100A90000160A07E01282068016833D021F0200188
:100AA0000160E07E0128206801682ED041F010012D
:100AB0000160207F01282068016829D021F0080109
:100AC0000160607F01282068016824D021F00401C2
:100AD0000160D4E902010843D4E904121143084338
:100AE0006168491E08432168C861002060620120D6
:100AF00084F82000002070BD41F08001C0E741F083
:100B00004001C5E741F02001CAE721F01001CFE71D
:100B100041F00801D4E741F00401D9E710B586B0EF
:100B2000044614216846FFF709FC174920688842EB
:100B300027D116480021026842F000720260006866
:100B400000F00070059011481038026842F0080269
:100B500002600068022200F0080005900320CDE941
:100B60000210CDE90002092004906946084800F00F
:100B700047FA00220521142000F0FAFB142000F0AF
:100B8000E9FB06B010BD00000064004040380240A0
:100B9000000C02407047000010B58AB004460020E7
:100BA00007900146089007AB6A462046FFF7B1FD63
:100BB0000F492068884219D1009881B2A1F50071CF
:100BC000053905D0012903D0022901D003290DD10F
:100BD000401FC0B200EB4001064800EBC10307A96B
:100BE000184602F0C9F8184602F0E2F80AB010BD43
:100BF00000640040504C0020704770477047000070
:100C000070B5044690F82000012804D0606A40F4D2
:100C10000020606218E0022084F82000206801684B
:100C200021F00101016000F005FB05460EE000BF68
:100C300000F000FB401B0A2808D9606A40F400302D
:100C40006062052084F82000012070BD20684068A3
:100C5000C007EDD1606270BD704770477047704744
:100C60007047704770472DE9F0410446876D00F0EA
:100C7000E1FA064694F835000025022806D08020C7
:100C8000606584F834500120BDE8F0812068016877
:100C900021F0160101602068416921F08001416165
:100CA000206C08B9A06C20B12068016821F008010F
:100CB00001602068016821F0010101600CE000F092
:100CC000B9FA801B052807D920206065032084F825
:100CD000350084F83450D7E720680068C007EED1AB
:100CE00094F85C103F208840B860012084F83500FB
:100CF00084F834500020C7E790F83510022903D05B
:100D00008021416501207047052180F83510006879
:100D1000016821F001010160002070472DE9F843CE
:100D200004464FF00009CDF8009063484FF4165187
:100D3000A56D0068B0FBF1F72E6894F85C100820F0
:100D400000FA01F131420FD021680A6852070BD531
:100D50000A6822F004020A6094F85C108840A860D7
:100D6000606D40F00100606594F85C104FF0010880
:100D700008FA01F0304208D021684969090604D513
:100D8000A860606D40F00200606594F85C1004207B
:100D90008840304208D021680968890704D5A860D6
:100DA000606D40F00400606594F85C10102088408D
:100DB000304218D021680968090714D5A860206856
:100DC0000168490304D50068000308D5A16C07E059
:100DD0000168C90503D4016821F008010160216C94
:100DE00009B12046884794F85C10202088403042A2
:100DF00031D021680968C9062DD5A86094F835005E
:100E000005282068016806D0490347D5006800031B
:100E10001DD4616C1CE021F016010160206841695D
:100E200021F080014161206C08B9A06C20B12068DC
:100E3000016821F00801016094F85C103F208840AF
:100E4000A86084F8358084F83490216D1FE0E16B50
:100E500009B120468847606D00282BD0606DC0071F
:100E600014D0052084F835002068016821F00101C4
:100E700001600098401C0090B84203D820680068C8
:100E8000C007F6D184F8358084F83490E16C0029ED
:100E900010D001B02046BDE8F04308470168C905FD
:100EA000D5D4016821F01001016084F8358084F800
:100EB0003490CCE7BDE8F8831C0000202DE9F04118
:100EC000044600F0B7F906465CB1022084F835000C
:100ED000002584F834502068016821F00101016088
:100EE0000DE00120BDE8F08100F0A4F9801B052889
:100EF00005D920206065032084F83500F2E72068DA
:100F00000068C007F0D12268116820480140D4E988
:100F100001031843D4E90336334318436369184384
:100F2000A3691843E3691843236A18430843616AB5
:100F3000042903D1D4E90B13194308431060206836
:100F40004069666A20F0070130460E4301270428F5
:100F50000CD1A06A0643E06A40B12046FFF77CFA54
:100F600020B14020606584F83570BAE7206846619A
:100F70002046FFF75DFA94F85C203F2191408160A4
:100F8000656584F835700020ACE700003F8010F004
:100F90002DE9F0410446866D90F8340000250128C3
:100FA0000DD0012084F8340094F835700020012F12
:100FB00007D084F8340002252846BDE8F0810220DD
:100FC000FBE7022784F8357060652046FFF76EFA6C
:100FD00094F85C103F208840B0602068016841F0C0
:100FE00016010160206C20B12068016841F0080101
:100FF00001602068016841F001010160DCE7000048
:101000002DE9F84FDFF8F8A10022012403254FF065
:101010000F090AF1040BAAF1040E00BF0B6804FAD1
:1010200002F63340B34270D10F7907F00307012F66
:1010300001D0022F16D187684FEA420805FA08FC52
:1010400027EA0C07D1F80CC00CFA08FC4CEA070C94
:10105000C0F808C04768B7430E79C6F3001696403B
:101060003E4346600E79F643B6070AD0C7684FEA9A
:10107000420C05FA0CF6B7438E6806FA0CF63E43AE
:10108000C6600E7906F00306022E10D1D60800EBDA
:101090008608D8F8206057074FEAD76C09FA0CF792
:1010A000BE430F6907FA0CF73743C8F8207006688B
:1010B0004FEA420C05FA0CF7BE430F7907F003071D
:1010C00007FA0CF7374307604E6816F4403F1CD010
:1010D0004C4E376847F480473760366822F0030784
:1010E00006F480460096484E07EB060CDCF80868CC
:1010F00097073F0F09FA07F826EA0806DFF80C8180
:10110000404503D14FF0000841E072E0DFF8008174
:10111000404502D14FF0010839E0DFF8F880404542
:1011200002D14FF0020832E0DFF8EC80404502D1F6
:101130004FF003082BE0DFF8E480404502D14FF088
:10114000040824E0DFF8D880404502D14FF00508BC
:101150001DE0DFF8D080404502D14FF0060816E0D0
:10116000DFF8C480404502D14FF007080FE0DFF8F8
:10117000BC80404502D14FF0080808E0DFF8B0809D
:10118000404502D14FF0090801E04FF00A0808FA83
:1011900007F848EA0608CCF80888DAF800605746ED
:1011A000D1F804C09E435FEACC2C00D51E433E60BC
:1011B000DBF800605F46D1F804C09E435FEA8C2CE8
:1011C00000D51E433E60DEF800607746D1F804C0CB
:1011D0009E435FEA8C3C00D51E433E60084F083FAB
:1011E0003E68D1F804C09E435FEACC3C00D51E4364
:1011F0003E60521C102AFFF411AFBDE8F88F0000CA
:10120000083C0140443802400030014000000240E8
:101210000004024000080240000C0240001002409E
:101220000014024000180240001C0240002002404E
:101230000024024001488068704700001000002030
:1012400002488168027811448160704710000020D4
:101250000B4810B5016841F400710160016841F468
:1012600080610160016841F480710160032000F039
:101270009FF80F2000F006F800F050F8002010BD95
:10128000003C024030B50546204887B00024016884
:1012900041F001010160006806A900F00100009022
:1012A00001A800F031F90498B0B100F04DF9400008
:1012B00017494FF08042B0FBF1F11648491E026019
:1012C00040F2E732C0E90324C0E90114846100F070
:1012D0008BFB040003D015E000F036F9E8E70D4879
:1012E00000F0CEFB04000DD11C2000F033F8102DCF
:1012F00007D2002229461C2000F03AF80648056073
:1013000000E0012407B0204630BD00004038024014
:1013100040420F0034030020140000200C4882B02B
:10132000016841F480410160006800F48040009051
:101330000748001F016841F08051016000680022E9
:1013400000F0805000900F21901E02B000F010B805
:1013500044380240002809DB00F01F0201219140BF
:101360004009800000F1E020C0F800117047000043
:10137000F0B40E4B1B680C46C3F30223C3F1070500
:10138000042D00D90425191D072901D2002300E0EE
:10139000DB1E012606FA05F1491E214099409E40B8
:1013A000761E16403143F0BC01F0AFBC0CED00E0FE
:1013B000064900F0070208684FF6FF03184040EAAC
:1013C0000220034A10430860704700000CED00E063
:1013D0000000FA052DE9F0470E46050065D0DFF85C
:1013E0001481D8F80000F7B200F00F00B04207D225
:1013F00088F80070D8F8000000F00F00B04254D117
:1014000028683D4C810712D5400703D5206840F479
:10141000E05020602878000703D5206840F4604041
:1014200020602068A96820F0F00008432060287838
:10143000C0072DD0304968680839012812D0022829
:1014400013D0032811D00968890700292DDA2168F3
:1014500021F0030101432160FFF7ECFE814641F2D8
:10146000883A0EE009688903EFE709688901ECE72B
:10147000FFF7E0FEA0EB0901514502D90320BDE8CA
:10148000F0872068696800F00C00B0EB810FEFD1A5
:10149000D8F80010404601F00F01B14207D907709B
:1014A000006800F00F00B04201D00120E7E7287883
:1014B000400705D52068E96820F4E0500843206023
:1014C0002878000706D52068296920F4604040EAA2
:1014D000C100206000F058F82168084AC1F30311E8
:1014E000515CC8400649086006480068FFF7CAFE1C
:1014F0000020C4E7003C0240083802402C4C0008A1
:101500001C000020140000200F2202600C4A136807
:1015100003F003034360136803F0F0038360136870
:1015200003F4E053C36012684FF4E05303EAD202BD
:1015300002610448006800F00F0008607047000076
:1015400008380240003C0240044805490068096828
:10155000044AC1F38221515CC84070471C0000203E
:10156000083802403C4C00080448054900680968F6
:10157000044AC1F34231515CC84070471C0000204E
:10158000083802403C4C0008154810B5006810F0BF
:101590000C02144813D04110042A0FD0082A0ED18F
:1015A0000F4C241F2268236802F03F025B0207D51C
:1015B0002068C0F38810A0FB010106E0084610BDBA
:1015C0002168C1F38811A1FB00010023FEF76CFE26
:1015D0002168C1F30141491C4900B0FBF1F010BD85
:1015E000083802400024F4002DE9F84F04006ED0C2
:1015F0002078DFF84C93C007A9F104054AD009F11F
:1016000004000168C1F38101012908D00068C0F31A
:10161000810002280AD1D9F80000400206D52868C6
:10162000800337D560680028E1D033E06068B0F50A
:10163000803F10D0B0F5A02F286810D020F4803063
:101640002860286820F4802028606068A8B1FFF72F
:10165000F1FD06460DE0286840F48030F4E740F4E0
:1016600080202860F7E700BFFFF7E4FD801B6428B7
:1016700073D828688003F7D50CE0FFF7DBFD06463A
:1016800005E000BFFFF7D6FD801B6428F0D828686E
:101690008003F7D42078DFF8AC8280074FF0000A8F
:1016A0003ED5A748001D016811F00C0F08D0006856
:1016B000C0F3810002280BD1D9F80000400207D402
:1016C0002868800716D5E068012800D112E033E1D0
:1016D000E068B8B10120C8F80000FFF7ABFD06468E
:1016E00005E000BFFFF7A6FD801B0228C0D82868D0
:1016F0008007F7D52868216920F0F80040EAC1008A
:1017000028600DE0C8F800A0FFF794FD064604E04D
:10171000FFF790FD801B02281FD828688007F7D4A8
:101720002078000722D5864F87486169703771B1EC
:1017300001210160FFF77EFD064604E0FFF77AFD18
:10174000801B022809D838688007F7D50EE0C0F85A
:1017500000A0FFF76FFD064605E082E0FFF76AFD97
:10176000801B02287DD838688007F7D4207840078E
:1017700068D5DFF8CCB100270BF13C0BDBF800009B
:10178000C0000BD4DBF8001041F08051CBF8001002
:10179000DBF80000012700F0805000906B4E3068AD
:1017A000C00510D4306840F480703060FFF742FD0F
:1017B000009005E0FFF73EFD0099401A022850D83E
:1017C0003068C005F6D55E4EA0686C3601280FD093
:1017D0000528306810D020F001003060306820F01B
:1017E00004003060A068B8B1FFF724FD00900FE05E
:1017F000306840F00100F4E740F004003060F7E7A3
:10180000FFF718FD0099411A41F28830814266D8ED
:1018100030688007F4D50EE0FFF70CFD009007E07C
:10182000FFF708FD0099411A41F28830814256D8ED
:1018300030688007F4D42FB1DBF8001021F080511C
:10184000CBF80010A069C8B33D49091D0968C1F370
:10185000810102294AD00228504607D0C8F860000A
:1018600000E03CE0FFF7E6FC04463BE04746C8F8F2
:101870006000FFF7DFFC064605E000BFFFF7DAFC7B
:10188000801B02282BD828688001F7D4D4E90701EF
:101890000843A16A2E4A490802EB0141626A41EA03
:1018A0008211084394F82C1040EA0161C9F8001035
:1018B00001203866FFF7BEFC044606E03EE000BFAC
:1018C000FFF7B8FC001B022809D828688001F7D56B
:1018D00034E000BFFFF7AEFC001B022802D9032052
:1018E000BDE8F88F28688001F4D427E00128F7D0FC
:1018F000D9F80000E26900F4800191421CD1226A0B
:1019000000F03F01914217D147F6C071626A014071
:10191000B1EB821F10D1A26A4FF0FF3300F44031C7
:1019200003EB5202B1EB024F06D194F82C1000F0F9
:101930007060B0EB016F01D00120D1E70020CFE74C
:101940000438024000004742800E474200700040C9
:101950000000FFFF7047704770B590F83C20012AE7
:1019600032D0012480F83C40022280F83D200368F8
:101970005A689D6822F070060A6832435A60134B19
:1019800002689A4214D0B2F1804F11D0104B9A42A3
:101990000ED0104B9A420BD00F4B9A4208D00F4BEF
:1019A0009A4205D00E4B9A4202D00E4B9A4204D175
:1019B000496825F080031943916080F83D4000217B
:1019C00080F83C10084670BD022070BD0000014048
:1019D0000004004000080040000C004000040140EA
:1019E000004001400018004010B5040003D094F8F6
:1019F0003D0010B107E0012010BD002084F83C003C
:101A0000204600F01FF8022084F83D00211D2068C8
:101A100000F0E6FE012084F8460084F83E0084F8D9
:101A20003F0084F8400084F8410084F8420084F8C4
:101A3000430084F8440084F8450084F83D00002009
:101A400010BD000008B500680B49884212D10B4850
:101A5000016841F0020101600068002200F002000C
:101A6000009005211D20FFF783FCBDE808401D20E4
:101A7000FFF770BC08BD0000000400404038024081
:101A800090F83D10012901D001207047022180F813
:101A90003D100168CA6842F00102CA60006811493D
:101AA000884214D0B0F1804F11D00F4988420ED037
:101AB0000E4988420BD00E49884208D00D49884211
:101AC00005D00D49884202D00C49884204D1816872
:101AD00001F00701062903D0016841F0010101600E
:101AE0000020704700000140000400400008004052
:101AF000000C00400004014000400140001800407C
:101B000070B5044690F83C000025012817D0012646
:101B100084F83C60022084F83D002068826822F04E
:101B2000770222F47F4282600868502838D00DDCAA
:101B300020284FD005DC90B3102811D14AE00220B4
:101B400070BD302846D040280AD13BE060282FD015
:101B500070280DD0B0F5805F03D0B0F5005F12D0D3
:101B6000012584F83D60002084F83C00284670BDC3
:101B7000CB68D1E90121206800F09AFE20688168D5
:101B800041F0770109E0CB68D1E90121206800F03C
:101B90008FFE2068816841F480418160E1E719E0AF
:101BA000CA684968206800F095FE5021206806E068
:101BB000CA684968206800F09EFE6021206800F035
:101BC00081FECEE7CA684968206800F083FE4021A4
:101BD0002068F4E7226801461046F0E770472DE9D7
:101BE000F04104460068C66805694FF00007A90780
:101BF00013D5B10711D5F91E0161012020772068A6
:101C000080698007204602D0FFF7E8FF04E000F07B
:101C10007EF8204600F07CF82777680716D5700715
:101C200014D521686FF00400086102202077206835
:101C3000806910F4407F204602D0FFF7CFFF04E018
:101C400000F065F8204600F063F82777280715D5DF
:101C5000300713D521686FF0080008610420207751
:101C60002068C0698007204602D0FFF7B7FF04E074
:101C700000F04DF8204600F04BF82777E80616D51F
:101C8000F00614D521686FF0100008610820207755
:101C90002068C06910F4407F204602D0FFF79EFF05
:101CA00004E000F034F8204600F032F82777E80727
:101CB00008D0F00706D021686FF0010008612046C7
:101CC00000F027F8280608D5300606D521686FF001
:101CD000800008612046FFF73DFE680608D57006C3
:101CE00006D521686FF040000861204600F018F822
:101CF000A8060AD5B00608D521686FF02000086153
:101D00002046BDE8F041FFF726BEBDE8F0817047F0
:101D100070470068B0F1804F01D1FFF791BA70476A
:101D2000704738B5044690F84200202801D00220C0
:101D300038BD51B14AB101202063002060632046C4
:101D400000F086FF216B012901D0012038BD2168F8
:101D50000A684968009121680C3151E8002F42F06F
:101D6000100241E80023002BF5D138BD38B50C46F0
:101D700000680E49884218D1002000900C4869463E
:101D8000006802F0E6FA0B4840220B4944800B48F9
:101D9000FFF7C7FF0098002807D009494FF080508F
:101DA0000860BFF34F8FBFF36F8F38BD0044004012
:101DB0000C000020B0000020624E00202401002012
:101DC00004ED00E070470000F8B5016804460868BB
:101DD000CA684B6910F00F0F4FF0000559D003F09F
:101DE000010602F49077374365D0C10705D0D105CD
:101DF00003D5616C41F001016164410705D5D90744
:101E000003D0616C41F002016164810705D5D907F7
:101E100003D0616C41F004016164010707D502F051
:101E20002001314303D0616C41F008016164616CB1
:101E300000293AD0800604D5900602D5204600F04D
:101E40001FFE20684069616CC0F38010090700D450
:101E500060B3204600F0DFFD20684069400621D5D0
:101E60002068143050E8001F21F0400140E80012C3
:101E7000002AF5D1E06BA8B172490165E06BFEF76D
:101E80003BFF002811D0E06B016D01B0BDE8F040D0
:101E9000084783060FD593060DD52046BDE8F840C8
:101EA00000F0EEBD2046FFF78DFFF8BD2046FFF79E
:101EB00089FF6564F8BD266B2023012E7ED1C606FE
:101EC0007CD5D6067AD508684868009048694FF0F6
:101ED000020640064DD5E26B106840684FF48077EB
:101EE0000004000C3AD0A18D814237D9E085D06939
:101EF000B8422DD020680C3050E8001F21F48071CA
:101F000040E80012002AF5D12068143050E8001F84
:101F100021F0010140E80012002AF5D120681430B8
:101F200050E8001F21F0400140E80012002AF5D1DE
:101F300084F84230256320680C3050E8001F21F0FF
:101F4000100140E80012002AF5D1E06BFEF78BFE8D
:101F50006663A08DE18D401A81B206E0A18D8142B9
:101F6000A8D1D069B842A5D166632046FFF7FEFE2E
:101F7000F8BDA08DE18D401A81B2E08D0028F7D028
:101F80000029F5D020680C3050E8002F22F4907220
:101F900040E80027002FF5D12068143050E8002FCA
:101FA00022F0010240E80027002FF5D184F84230EA
:101FB000256320680C3050E8002F00E006E022F096
:101FC000100240E80023002BF3D1CDE705062BD506
:101FD000150629D594F841002128C9D1A068B0F58B
:101FE000805F01D12069B0B1206A411C2162216863
:101FF00000784860E08C401E0004000CE084B7D1FB
:102000002068C16821F08001C1602068C16841F08A
:102010004001C160F8BD206A0088C0F30800486034
:10202000206A801C2062E5E74006F3D55006F1D512
:10203000CA68204622F04002CA6084F8413000F0AD
:102040001BF9F8BD1B29000870B5040004D094F8F2
:102050004100002510B106E0012070BD84F8405019
:10206000204600F023F8242084F841002068C1684D
:1020700021F40051C160204600F064FD2068016930
:1020800021F4904101612068416921F02A014161F8
:102090002068C16841F40051C1606564202084F863
:1020A000410084F842006563002070BD2DE9F04FC7
:1020B00087B0044614216846FEF740F96548DFF80A
:1020C00090C12368634910380226032707220025A0
:1020D0004FF4807A4FF000694FF4806B63454DD127
:1020E0000B6843F400330B60096801F4003105917B
:1020F000016841F0010101600068029500F00100F3
:1021000005900C20CDE90006CDE9037269465248DE
:10211000FEF776FF524E5148C8463060C6E9019539
:10212000C6E9035B7561C6E9065A35625F4630460B
:102130007562FEF7C3FE08B1FEF7CDF9E663B4633E
:10214000474E464860361830E6E802084020A1C6EF
:10215000434846F814596030B561F56135627562DF
:10216000FEF7ACFE08B1FEF7B6F9A6630022052122
:102170002620B463FFF7FCF8262064E0DFF8E4C013
:10218000634562D10B6843F480230B60096801F456
:1021900080210591016841F002010160016801F0B0
:1021A00002010591016841F008010160006802AB7D
:1021B00000F0080005904FF40060CDE9000690465D
:1021C00083E8A00169462848FEF71AFF02AB69467A
:1021D00083E8A001CDE900A62448FEF711FF204EB8
:1021E0001E48C03660383060C6E90195C6E9035B19
:1021F0007561B561F56135624F46D8463046756206
:10220000FEF75CFE08B1FEF766F9E663B4631348B7
:10221000174E3038E6E802074020A6E821011448AE
:1022200046F81459B561F56135627562FEF746FEF0
:1022300008B1FEF750F9A663002205212720B463F8
:10224000FFF796F82720FFF785F807B0BDE8F08F75
:1022500000440040403802400000024088600240D4
:10226000B40100200048004000040240000C02407D
:10227000D4020020704770477047FEE70E4810B543
:102280000C4901600321416000214FF4302281603C
:10229000C0E903124161017641768176C17601770A
:1022A0004177FEF7AEFB002803D0BDE81040FEF7F3
:1022B00012B910BD00640040B4000020154808B5F4
:1022C000016841F4001101600068002200F4001070
:1022D000009005210C20FFF74BF80C20FFF73AF88F
:1022E000002205210E20FFF743F80E20FFF732F8F9
:1022F000002205211020FFF73BF81020FFF72AF8F5
:10230000002205211120FFF733F8BDE80840112015
:10231000FFF720B83038024010B501210D4A0846B9
:1023200000F0E4FD0C4C0B4A0021E0606C3A0B48D5
:1023300000F028FE074A2060483A0021084800F0D3
:1023400021FE044A6060243A0021064800F01AFE8B
:10235000A06010BD144C00080000002001270008F8
:10236000C5380008312E0008114808B5016841F051
:1023700080010160016801F080010091016841F075
:1023800001010160016801F001010091016841F063
:1023900002010160016801F002010091016841F051
:1023A00008010160006800F00800009008BD00000E
:1023B0003038024010B586B00024174800940194CC
:1023C0000294039404941349059401605321C0E9D5
:1023D00001144FF47A71C0E903148461FFF704FB20
:1023E00008B1FEF778F84FF48050009069460A482B
:1023F000FFF786FB08B1FEF76EF8049404A90648BF
:102400000594FFF7A9FA002801D0FEF764F806B09A
:1024100010BD000000040040DC0000200C4810B596
:102420000A4901604FF4E1314160002181600C22D2
:10243000C160C0E904128161C161FFF705FE002897
:1024400003D0BDE81040FEF746B810BD0044004080
:10245000240100200C4810B50A4901604FF4E13115
:102460004160002181600C22C160C0E904128161D9
:10247000C161FFF7E9FD002803D0BDE81040FEF779
:102480002AB810BD004800406C010020FEE7FEE7BE
:1024900080EC040A9FED0D0A80ED040A80ED050A28
:1024A00080ED060A80ED070A80ED090A80ED0A3A00
:1024B00080ED082AC0ED0E2A80ED0B0A80ED0C0A93
:1024C00080ED0D0A80ED100A70470000000000004A
:1024D00030EE601A00F1100181EC030AB0EEC11A6F
:1024E000D0ED0A1AB4EEE11AF1EE10FA04D9B5EE05
:1024F000C00AF1EE10FA05D19FED3A1A80ED061AE6
:1025000080ED071AD0ED061A374AB0EEE11A11EE47
:10251000101A90ED071A914202DA31EE211A03E007
:102520009FED322A21EE021A80ED071A90ED072A5C
:1025300090ED081AB4EEC12AF1EE10FA01DD80ED3B
:10254000071A90ED072AB1EE411AB4EEC12AF1EE56
:1025500010FA01D280ED071A90ED001A90ED0C3AB6
:1025600090ED072A61EE212A30EEC33A90ED011A70
:10257000D0ED023A21EE022A23EE833A9FED1C1A97
:10258000D0ED103A23EE811ADFED1A3A03EE831AEA
:1025900080ED101A90ED033A23EE003A73EE222AF2
:1025A00032EE822A32EE012A80ED092A90ED0E1ACF
:1025B000B4EEC12AF1EE10FA01DD80ED091A90EDBA
:1025C000092AB1EE411AB4EEC12AF1EE10FA01D295
:1025D00080ED091AC0ED0D1A80ED0B0AC0ED0C0A52
:1025E00070470000000000000000FA4348E17A3F15
:1025F000CDCC4C3FCCCC4C3E817884B0012932D13B
:10260000C17801292FD1017917292CD1B0F80510F3
:10261000ADF80010B0F80710ADF80210B0F80910CE
:10262000ADF80410B0F80B10ADF80610B0F80D10AE
:10263000ADF808100D49009A41F85A2F019A4A60E6
:10264000BDF808200A81094A00214318DB7B22F8E3
:102650001130491C0D29F8DB04491A2201F16400EC
:1026600004B0FDF752BE04B070470000484E002091
:102670001C4810B5B0F90400DFED1B0A00EE100A8B
:10268000B8EEC00A00F060FB30EE610ADFED170A19
:10269000174846F2A81140EE201AC0ED001A15485E
:1026A000008A10FB01F04FF4A07190FBF1F000EEF6
:1026B000100A1148F8EEC00AB0EE610AFFF708FFF1
:1026C0000D480E49002390ED090A1A46BDEEC00AD6
:1026D00010EE100A00B20880BDE81040194601F063
:1026E00011B90000A24E002000007042CDCC4C3E3B
:1026F000384E0020504C0020284D0020A80000201B
:10270000012000F0B7FBFBE710B54FF0E0200069B7
:1027100002F058F8012803D0BDE8104001F01EBCBB
:1027200010BD000030B593B030216846FDF706FEBD
:1027300014210CA8FDF702FE1D480025016841F098
:1027400080510160006800F08050119019480168C4
:1027500041F4404101600068022400F440401190BF
:1027600001200090000401908001CDE9064008AAF4
:102770000420A82182E813000B906846FEF734FF7E
:1027800008B172B6FEE70CA90F2081E831004FF4C2
:10279000A0500F904FF48050109005210CA8FEF728
:1027A00019FE002801D072B6FEE713B030BD00005C
:1027B00040380240007000400248016841F4700156
:1027C0000160704788ED00E00148FFF708BA00009B
:1027D000340300200148FFF702BA0000DC000020AB
:1027E000F0B50268274B284D284E294F294C4FF051
:1027F000804C984209D0604507D0A84205D0B0422D
:1028000003D0B84201D0A04204D122F0700E4A6831
:1028100042EA0E0298421BD0604519D0A84217D058
:10282000B04215D0B84213D0A04211D01A4DA842E0
:102830000ED01A4DA8420BD0194DA84208D0194D00
:10284000A84205D0184DA84202D0184DA84203D185
:1028500022F44075CA682A434D6922F080022A4357
:102860008D68C5620D688562984201D0A04201D191
:1028700009690163016841F00401016001214161BE
:102880000260F0BD0000014000040040000800406C
:10289000000C0040000401400040014000440140A1
:1028A0000048014000180040001C0040002000408B
:1028B00010B5846842EA032224F47F440A43224389
:1028C000826010BD826822F070020A4342F0070164
:1028D0008160704710B5036A046A24F00104046241
:1028E000846924F0F00444EA021423F00A020A4343
:1028F0008461026210BD10B5036A046A24F01004FA
:102900000462846923F0A00324F4704444EA023290
:1029100043EA01118261016210BD10B5806B002194
:10292000C185FFF74FFA10BD70B5846B2068406910
:1029300094F84110C0F3C0100025212904D118B12A
:10294000E584204600F08EF82068406994F8421033
:10295000C0F38010222904D118B1E585204600F08B
:102960005AF8606C40F0100060642046FFF72AFAC5
:1029700070BD10B50146806B096809684FF0000210
:10298000C9052ED4C28501680C3151E8003F23F4FB
:10299000807341E80034002CF5D10168143151E80E
:1029A000003F23F0010341E80034002CF5D1016819
:1029B000143151E8003F23F0400341E80034002C7B
:1029C000F5D1202180F84210016B012909D101685D
:1029D0000C3151E8003F23F0100341E80034002C93
:1029E000F5D14263016B012902D0FFF743FC10BD12
:1029F000818DFFF7BBF910BD10B5806B01214163DC
:102A0000016B012902D0FFF736FC10BD818D49080A
:102A1000FFF7ACF910BD01680C3151E8002F22F42A
:102A2000907241E80023002BF5D10168143151E880
:102A3000002F22F0010241E80023002BF5D1016BA9
:102A4000012909D101680C3151E8002F22F0100250
:102A500041E80023002BF5D1202180F8421000210D
:102A60000163704701680C3151E8002F22F0C00269
:102A700041E80023002BF5D1202180F84110704758
:102A800008B590F84210222901D0022008BD8268C2
:102A90004FF480539A4201D1016921B1816A9A426F
:102AA0001BD04AB10AE00268816A5268C2F3080288
:102AB0000A80816A891C08E0026972B10268526862
:102AC00002F07F020A70816A491C8162C18D491E31
:102AD0000904090CC18503D01BE002685268F1E7C4
:102AE0000168CA6822F02002CA600168CA6822F43C
:102AF0008072CA6001684A6922F001024A6120219D
:102B000080F8421000214163026B012A03D0FFF7D5
:102B1000B1FB002008BD016301680C3151E8002FB2
:102B200022F0100241E80023002BF5D101680A6869
:102B3000D20602D50A6849680091818DFFF716F91F
:102B4000E7E7000070B5044600680169E26821F417
:102B50004051114301612169A068E269084361693C
:102B6000114308432168CA6849F20C639A4302433F
:102B7000CA6020684169A26921F440711143416132
:102B800031492068884202D03049884202D1FEF79C
:102B9000EBFC01E0FEF7D8FCE26900231921642573
:102BA0003226B2F5004F626828D0A0FB0101930FD6
:102BB0009200FDF779FB0146B0FBF5F06FF01802CB
:102BC000504301EB800006EB0010B0FBF5F000F085
:102BD000F002B1FBF5F002EB0012B1FBF5F06FF083
:102BE0001803584301EB800006EB0010B0FBF5F032
:102BF00000F00F0021681044886070BDA0FB010147
:102C000092185B41FDF750FB0146B0FBF5F0020165
:102C1000B1FBF5F06FF01803584301EB800006EBB1
:102C2000C000B0FBF5F000F0F80002EB4002B1FB91
:102C3000F5F0584301EB800006EBC000B0FBF5F067
:102C400000F00700D6E7000000100140001401402A
:102C500038B58162044682850020134660642222D2
:102C600084F84220E56B1F4AEA63E56B1E4A2A643A
:102C7000E56B1E4AEA64E26B10650A462168E06B68
:102C8000091DFEF785F930B110206064202084F81A
:102C90004200012038BD206801684068009020692A
:102CA00048B120680C3050E8001F41F4807140E8C2
:102CB0000012002AF5D12068143050E8001F41F0BE
:102CC000010140E80012002AF5D12068143050E8D4
:102CD000001F41F0400140E80012002AF5D1002019
:102CE00038BD000073290008F929000829290008C7
:102CF0000148FFF769B80000240100200148FFF7F0
:102D000063B800006C010020FEE70907090E0028E7
:102D100004DB00F1E02080F80014704700F00F00A1
:102D200000F1E02080F8141D704702E008C8121F6F
:102D300008C1002AFAD170477047002001E001C1A4
:102D4000121F002AFBD17047B4EEE00AF1EE10FA30
:102D500002DD30EE600A7047B1EE601AB4EEC10ACF
:102D6000F1EE10FA02D230EE200A70479FED010A10
:102D70007047000000000000028842800A88F1EEDF
:102D8000040A52BA02804A8852BA0282898849BA31
:102D900009B200EE101AB8EEC00A20EE200ADFEDEC
:102DA000030A20EE200A80ED030A704700008038F5
:102DB00030B5038841885A1A8B4202D202F500517D
:102DC00001E0A2F50051002901DB0C4600E04C4275
:102DD000151E00DA5542AC4200DB11464268DFEDB9
:102DE000070A114400EE101A41604380B8EEC00A91
:102DF00080EE201A80ED051A30BD00002CA099410C
:102E0000FEF726FAFFF78EFCFFF7AEFAFFF756FA49
:102E1000FFF734FAFFF7CEFAFFF700FBFFF71AFBD4
:102E200000F036F8FFF778FA00F044F8FEE700000B
:102E3000FDF7C8FA9FED0B2AB3EE0E3ADFED0A1A42
:102E4000F0EE422AB0EE081ADFED080AB0EE080AEA
:102E50000748FFF71DFB00BFFFF70AFC0A2000F040
:102E6000D5FEF9E70050C3469A99993E000000004C
:102E7000284D002010B5EFF3058111B16FF0050466
:102E800003E0002408B100F0C1FE204610BD0000A0
:102E9000EFF3058010B16FF005007047044801683A
:102EA00011B14FF0FF3070470121016000207047E1
:102EB0007000002010B5EFF3058010B16FF0050031
:102EC00010BD08480168012902D04FF0FF3010BD45
:102ED000054A002182F8141D0221016000F046FF1E
:102EE000002010BD700000200BE000E0F8B5144693
:102EF00003460E464FF00005EFF3058098BB93B3F1
:102F00009E423DD84CB1A0680028E06803D050280C
:102F100036D3012002E008B132E00020012B05D0B9
:102F200010B31846A26801F04CF820E040B103202D
:102F30000090002211460120A36801F083F804E00C
:102F400003220021012001F05CF8050018D086B1B1
:102F500000231A46194601F0EDF8012809D0284649
:102F600000F006FE00250BE0184601F00DF8050004
:102F700006D00CB1216800E00021284600F0E4FDF5
:102F80002846F8BD2DE9FF414FEA01034FF0000547
:102F9000EFF30581039549BB40B380271821002436
:102FA0004AB3166806B1344696691EB13146761E9C
:102FB000382E02D21679F60703D0002004B0BDE8FF
:102FC000F081566906B1B708D2F808C0BCF1000F0D
:102FD0000DD0D5685C2D18D312693AB136B18DE8A1
:102FE00006103A46214601F0C2FB03900DE0D66878
:102FF0005EB912694AB903AACDE90012BAB22146F4
:1030000001F088FB012800D003950398D6E7000063
:103010002DE9F041134C0F460546E6682068001D77
:1030200000F094FC681C07D137B12168BDE8F0417D
:103030000D48091D00F0DABC20683544B5424560F2
:10304000216805D2A06BBDE8F041091D00F0B6BCB7
:10305000606B091D00F0B2FCA06A854200D2A56237
:10306000BDE8F081200000206C0800202DE9F0412F
:10307000054600F0C7FC2D4CA068401CA0602068ED
:103080002B4F10B1606930B32BE02560A068012898
:1030900027D1002606EB860007EB800000F080FCBD
:1030A000761C382EF6D3234800F07AFC21481430E1
:1030B00000F076FC1F48283000F072FC1D483C30C0
:1030C00000F06EFC1B48503000F06AFC1948606349
:1030D0001430A06305E02068E96AC06A884200D81D
:1030E0002560606A401C60626864E86A2169884201
:1030F00000D9206100EB800007EB8000291D00F063
:1031000075FC00F09FFC606900280CD02068E96A1B
:10311000C06A884207D208494FF080500860BFF368
:103120004F8FBFF36F8FBDE8F081000020000020BB
:10313000BC0300201C08002004ED00E038B500F0BE
:1031400061FC104C2068C8B90F4800F029FC0E48FB
:10315000143000F025FC0C48E060143020610A4B6C
:103160000020F03B009003F1500210210A2000F0F3
:1031700069FF206010B105A100F0E6FCBDE8384011
:1031800000F060BC5C00002070090020546D72519A
:103190000000000030B4026C0B46002A0BD0C1685E
:1031A0001144C1608468A14201D30168C16030BC90
:1031B0001846FDF7AAB830BC70472DE9F041856B81
:1031C000174604460026026C82B1C7B1E068FDF7DD
:1031D0009CF8E168206C091AE1602268914202D2F1
:1031E000A168081AE060022F16D017E02068A8B97D
:1031F000A06801F05FFB06460020A0600EE060685A
:10320000FDF783F8216C606808446060A16888421B
:1032100004D32068606001E005B16D1E6D1CA563DC
:103220003046BDE8F08110B5044690F8590058B119
:1032300001280CD002280FD0502080F31188BFF352
:103240004F8FBFF36F8FFEE7206B00F00FFC20461F
:10325000BDE8104000F00ABC10BD000010484FF45B
:103260007051420706D0C01D0D4920F00700411AD9
:10327000C1F570510B4A00230144C2E9000308392B
:10328000183A21F0070111604B600B600B1AC0E97E
:10329000001393604FF0004053605061704700008E
:1032A000501000208C000020144E154CA6F29C47B4
:1032B0004FF08058DFF84C9012E000BF00F0A2FB06
:1032C000F068C568281D00F041FBA068401EA060A2
:1032D0006068401E606000F0B5FB2846FFF7A3FF62
:1032E00060680028EAD138680128F9D9C9F8008057
:1032F000BFF34F8FBFF36F8FF2E700005808002035
:103300002000002004ED00E070B51D46049C51B182
:10331000C4F80020C4E90F010121204600F0C6FED8
:1033200084F84C5070BD2460F4E700002DE9F05F94
:103330008846DDE90B941546834691009A460A9E1D
:10334000A522206BFCF7F3FF6FF00301206B01EB6C
:103350008501084420F00707780707D0502080F344
:103360001188BFF34F8FBFF36F8FFEE70025B8F1D1
:10337000000F0FD05FF00000221818F8001082F83C
:10338000341018F8001011B1401C1028F4D384F840
:10339000435001E084F83450382E00D33726E662DB
:1033A000C4E91365201D00F006FB04F1180000F0CD
:1033B00002FB2461C6F138006462A061656584F88F
:1033C000585052465946384600F066FA2060B9F126
:1033D000000F01D0C9F80040BDE8F09F30B5114999
:1033E00000E011460A688242FBD34B685C188442B5
:1033F00003D1406818444860084643681C1894424A
:1034000009D1084C183C2468A24209D052681A44D9
:1034100042600A6812680260814200D0086030BDD4
:103420000460F9E78C00002070B5002441600B4D6A
:103430000061914206D8D11A8269914206D2011DDB
:10344000286907E09A4203D2994201D3012403E09C
:10345000011DE86800F0B2FA204670BD5C00002053
:1034600010B5044600F0CEFAA06B28B15FF000045E
:1034700000F0E8FA204610BD0124F9E730B589B024
:103480003C4D6EE00498002806DADDE90601059A55
:1034900090470498002864DB069C606910B1201DE9
:1034A00000F054FA03A800F0D7F8024604980A285E
:1034B00057D2DFE800F00505052D334A05052D3309
:1034C00094F8280040F0010084F828000599A069CC
:1034D000059B01442046FFF7A7FF68B3216A2046F9
:1034E000884794F8280040073BD5002000900598B5
:1034F000A169002342181946204601F021FBD8B9E2
:10350000502080F31188BFF34F8FBFF36F8FFEE71A
:1035100014F8280F20F00100207022E094F8280011
:1035200040F0010084F828000598A06128B18118B6
:1035300013462046FFF778FF13E0502080F31188F0
:10354000BFF34F8FBFF36F8FFEE794F8280081071A
:1035500003D4204600F08AFA03E020F0010084F84A
:103560002800002204A9286800F042FF002889D121
:1035700009B030BD5C0000202DE9FC410F46054636
:1035800000F038FC01A800F067F80446019818B173
:1035900001F044FABDE8FC81254EAFB13069006806
:1035A000D0B30027291B3A46306800F00DFB01F02C
:1035B00035FA0028EED11F494FF080500860BFF364
:1035C0004F8FBFF36F8FE5E7A542EBD801F026FAE6
:1035D000F0682746C068C468201D00F0B7F994F869
:1035E0002800410719D5A0692B4641193A462046C3
:1035F000FFF71AFFA8B100200346014600902A46B3
:10360000204601F09DFA60B9502080F31188BFF385
:103610004F8FBFF36F8FFEE707E020F0010084F8C3
:103620002800216A20468847B4E70127BAE700004E
:103630005C00002004ED00E00648416B096829B1F8
:10364000416BC968C9684968816270474FF0FF31B2
:10365000FAE700002000002070B5054601F0C0F830
:10366000064E0446B068844203D200F009F80120F7
:1036700000E0002028602046B46070BD5C0000209F
:10368000F8B5194D20E0C068C4680668201D00F038
:103690005DF9216A2046884794F82800400713D531
:1036A000A0693044B04206D924616060211DE868F9
:1036B00000F084F908E000200346014600903246FD
:1036C000204601F03DFA38B1E86801680029DAD1F6
:1036D0002969C5E90310F8BD502080F31188BFF3B4
:1036E0004F8FBFF36F8FFEE75C00002008484068F3
:1036F000401C4FF0500080F3118804D0BFF34F8F6F
:10370000BFF36F8FFEE7BFF34F8FBFF36F8FFEE7FF
:1037100094000020074CE068016841B1C0680021B6
:10372000D0F80000FFF728FFFFF7A8FEF3E701211C
:103730000020F7E75C0000202DE9F041044600F08E
:1037400061F994F9455004F1240609E0606A48B132
:10375000304601F02BF908B100F086FA6D1E6DB20B
:10376000002DF3DC4FF0FF3684F8456000F06AF975
:1037700000F048F994F9445004F1100709E0206979
:1037800048B1384601F012F908B100F06DFA6D1E2B
:103790006DB2002DF3DC84F84460BDE8F04100F028
:1037A00051B900002DE9F0410546002700F022FB49
:1037B000324E306808B9FFF751FD706905424ED1AD
:1037C000C5B3083568070ED005F00700C0F1080042
:1037D0000544680707D0502080F31188BFF34F8F4E
:1037E000BFF36F8FFEE72DB37068854237D823484B
:1037F000183001460C6801E020460C466168A94279
:1038000002D221680029F7D131688C4227D007689D
:103810002168016060680837411B10290FD96019C1
:10382000420708D0502080F31188BFF34F8FBFF3B9
:103830006F8FFEE713E041606560FFF7CFFD6168C1
:103840007068401A7060B268904200D2B0607069CF
:1038500001430020C4E90001F068401CF06001F061
:10386000DDF8780707D0502080F31188BFF34F8F21
:10387000BFF36F8FFEE73846BDE8F081740000208B
:103880000449086818B10868026D521C026508688E
:10389000704700002000002010B5031F4FF0807417
:1038A0001C601B1F21F001011960191F044B0B60E4
:1038B00014390A60091F6FF0020244380A6010BD13
:1038C000ED36000840220B490B48FEF72AFA0B4C54
:1038D0000B4D4FF0FF3620703146286800F024FE73
:1038E000012803D161880348FCF7F7FD0A2000F0A6
:1038F0008DF9F1E7624E002024010020B000002085
:103900000C00002038B50E4C40F2FF152560002554
:10391000A560E560082525610A4C050A25706070E0
:10392000080AA070E170100A20716271180AA07173
:10393000E3716B46224602490348FCF7FBFD38BDA4
:10394000104D0020A0000020B4000020D0E901327A
:1039500001699A60D0E901235A604A68824201D124
:1039600082684A60002202610868401E0860086898
:1039700070470000034B036003F15C000860802087
:103980001060704798090020044B036003F15C004D
:1039900008604FF48070106070470000F40B002046
:1039A00000F108014FF0FF32C0E90112C16001616E
:1039B00000210160704700210161704730B50B683C
:1039C0005A1C02D000F1080202E0026904E022461B
:1039D000546825689D42FAD953684B6099608A60A3
:1039E000516008610168491C016030BD42684A604D
:1039F00093688B6093685960916008610168491C05
:103A000001607047502080F31188BFF34F8FBFF3E0
:103A10006F8F0A494868401C486001280CD108484B
:103A2000006810F0FF0F07D0502080F31188BFF31B
:103A30004F8FBFF36F8FFEE77047000094000020A8
:103A400004ED00E00849486828B1401E486001D1F3
:103A500080F311887047502080F31188BFF34F8F97
:103A6000BFF36F8FFEE700009400002070B50028C0
:103A70002AD0164DA0F1080460686969084207D190
:103A8000502080F31188BFF34F8FBFF36F8FFEE795
:103A900022683AB1502080F31188BFF34F8FBFF3F3
:103AA0006F8FFEE78843606000F0A4F96068696882
:103AB000084468602046FFF791FC2869401C286193
:103AC000BDE8704000F0AABF70BD00007400002087
:103AD0004FF0E02000210161816105494FF47A72C5
:103AE0000968B1FBF2F1491E41610721016170478C
:103AF0001C00002010B5FCF7C1FB114910280ED3A3
:103B000000F1E02090F8F0030A78904207D25020AC
:103B100080F31188BFF34F8FBFF36F8FFEE7094823
:103B20000068896800F4E060884207D9502080F37B
:103B30001188BFF34F8FBFF36F8FFEE710BD0000FA
:103B4000940000200CED00E010B5084B002200BFEF
:103B500053F832401CB1521C082AF9D310BD43F867
:103B6000321003EBC201486010BD00007C0300204E
:103B700010B504000AD000F013F894F846000028AD
:103B80000CD12046BDE81040FFF770BF502080F3F5
:103B90001188BFF34F8FBFF36F8FFEE710BD00009A
:103BA000084A002102EBC1035B68834206D1002072
:103BB00042F8310002EBC10148607047491C0829F6
:103BC000F0D370477C03002070B515460E460446BE
:103BD000FFF718FF94F944100020491C01D184F824
:103BE000440094F94510491C01D184F84500FFF7C1
:103BF00029FFA06B28B92A46314604F1240000F0C1
:103C000051F82046BDE87040FFF796BD10B50200A0
:103C100014D00F48006B38B1502080F31188BFF3E7
:103C20004F8FBFF36F8FFEE700F0E4F800211046DE
:103C3000FFF7EEF900F0F2FE002807D105494FF03A
:103C400080500860BFF34F8FBFF36F8F10BD00002F
:103C50002000002004ED00E002490A6A0260C96801
:103C6000416070472000002001490120C861704771
:103C70002000002010B50C4650B1094909681831E0
:103C8000FFF79CFE2046BDE810400121FFF7C0B9B8
:103C9000502080F31188BFF34F8FBFF36F8FFEE783
:103CA0002000002070B514460D4668B10A49096825
:103CB0001831FFF79BFE0CB14FF0FF352146284627
:103CC000BDE87040FFF7A4B9502080F31188BFF31E
:103CD0004F8FBFF36F8FFEE72000002070B5040008
:103CE0003ED0226DA2B1E06C884200D30146E06A6A
:103CF000884235D0012A33D11A4D2A6894420FD117
:103D0000502080F31188BFF34F8FBFF36F8FFEE712
:103D1000502080F31188BFF34F8FBFF36F8FFEE702
:103D2000E162A269002A02DBC1F13801A1610E4EF5
:103D300000EB8000616906EB8000814210D1201DFC
:103D4000FFF704FEE06A2969884200D9286100EB88
:103D5000800006EB8000211DBDE87040FFF746BEE5
:103D600070BD000020000020BC03002030B587B0EB
:103D70000024039405AA04A903A80494FFF7FAFDFC
:103D8000DDE903010094CDE90110002315A11748D6
:103D9000059A00F0ECFC164D0028E8621FD000F0F8
:103DA0009FFE012809D0401C19D1502080F31188B2
:103DB000BFF34F8FBFF36F8FFEE7502080F3118862
:103DC000BFF34F8FBFF36F8F4FF0FF30A86201201A
:103DD0006861EC6007B0BDE8304000F045B807B05E
:103DE00030BD000049444C4500000000A9320008E5
:103DF000200000200248016B491C0163704700004D
:103E000020000020164810B5016B11B10121C161DD
:103E100010BD0021C1610169124A01E0B9B1491E1A
:103E200001EB810352F82330002BF7D001EB810323
:103E300002EB830202F1080453685B685360A342FB
:103E400001D15B685360DA680260016110BD5020E7
:103E500080F31188BFF34F8FBFF36F8FFEE7000031
:103E600020000020BC0300201CB537480168374AF9
:103E7000914207D1502080F31188BFF34F8FBFF3D9
:103E80006F8FFEE700683149491E884207D15020F4
:103E900080F31188BFF34F8FBFF36F8FFEE72C497C
:103EA00008780190FF20087008788DF800009DF8D0
:103EB00000009DF8002000F0F000904207D0502054
:103EC00080F31188BFF34F8FBFF36F8FFEE79DF82C
:103ED0000000204C00F0500020700720A06005E09A
:103EE0009DF8002052008DF80020401E9DF8002013
:103EF0001206F5D4A060032807D0502080F3118863
:103F0000BFF34F8FBFF36F8FFEE74FF44070A06099
:103F1000019808700C482030016841F4700101607C
:103F2000016841F070410160FFF7D2FD0020606040
:103F3000FCF76CF90848016841F040410160FCF76A
:103F400051F900201CBD000000ED00E071C20F41DE
:103F500000E400E09400002034EF00E010B55020B1
:103F600080F31188BFF34F8FBFF36F8F00F03EFCDB
:103F700018B104494FF080500860002080F3118888
:103F800010BD000004ED00E010B50C4648B18442BD
:103F90000FD9502080F31188BFF34F8FBFF36F8F7D
:103FA000FEE7502080F31188BFF34F8FBFF36F8F70
:103FB000FEE70222002100F024F8002800D08463EC
:103FC00010BD38B50C4648B184420FD9502080F35B
:103FD0001188BFF34F8FBFF36F8FFEE7502080F340
:103FE0001188BFF34F8FBFF36F8FFEE70221134697
:103FF00000220091114600F025F8002800D08463CB
:1040000038BDF8B517460E46050013D005FB06F07F
:104010005030FFF7C7FB04000AD0002084F84600A8
:1040200004F150023B46314628460094FFF76CF9F4
:104030002046F8BD502080F31188BFF34F8FBFF3A7
:104040006F8FFEE738B5049D18B153B1CAB181B185
:1040500020E0502080F31188BFF34F8FBFF36F8FA4
:10406000FEE7502080F31188BFF34F8FBFF36F8FAF
:10407000FEE7502080F31188BFF34F8FBFF36F8F9F
:10408000FEE739B1502080F31188BFF34F8FBFF3A3
:104090006F8FFEE750241C46012384F846302B46E0
:1040A0000094FFF731F9204638BD000070B50D4689
:1040B000040025D0FFF7A6FCD4E90F20216802FBFD
:1040C0000011A1600021A163216861600A46D4E962
:1040D0000F01401E00FB0121E16021464FF0FF303F
:1040E00001F8440F487004F110008DB1FFF758FC3F
:1040F00004F12400FFF754FCFFF7A4FC012070BD7D
:10410000502080F31188BFF34F8FBFF36F8FFEE70E
:1041100021690029F0D000F049FC0028ECD00449C6
:104120004FF080500860BFF34F8FBFF36F8FE3E70E
:1041300004ED00E02DE9FF4782B01D468A464FF0AE
:104140000008040003D0BAF1000F08D011E050209D
:1041500080F31188BFF34F8FBFF36F8FFEE7206CA2
:1041600038B1502080F31188BFF34F8FBFF36F8FAA
:10417000FEE7022D0AD1E06B012807D0502080F322
:104180001188BFF34F8FBFF36F8FFEE700F01AFB6C
:104190003F4F4FF000094FF0805648B9049838B1AE
:1041A000502080F31188BFF34F8FBFF36F8FFEE76E
:1041B000FFF728FCA06BE16B884207D3022D05D0E6
:1041C0000498D0B1B8F1000F1AD01EE02A4651462B
:1041D0002046FEF7F2FF616A19B104F1240000F0F5
:1041E000E5FB20B13E60BFF34F8FBFF36F8FFFF74A
:1041F00029FC012006B0BDE8F087FFF723FC22E090
:104200006846FFF729FD4FF00108FFF71BFCFFF799
:10421000F1FDFFF7F7FB94F94400401C01D184F84D
:10422000449094F94500401C01D184F84590FFF773
:1042300009FC04A9684600F033FA30B12046FFF7C4
:104240007BFA00F0EBFB0020D4E7FFF7DBFBA06B71
:10425000E16B884213D1FFF7F5FB04F110000499DC
:10426000FFF708FD2046FFF767FA00F0D7FB0028AC
:104270009ED13E60BFF34F8FBFF36F8F98E7FFF77C
:10428000E1FB2046FFF758FA00F0C8FB90E700007A
:1042900004ED00E02DE9F0471F46904689460400F2
:1042A00003D0B9F1000F08D011E0502080F311883D
:1042B000BFF34F8FBFF36F8FFEE7206C38B15020F4
:1042C00080F31188BFF34F8FBFF36F8FFEE7022F8C
:1042D0000AD1E06B012807D0502080F31188BFF38A
:1042E0004F8FBFF36F8FFEE7FFF704FC5020EFF313
:1042F000118680F31188BFF34F8FBFF36F8FA06BD0
:10430000E16B884206D3022F04D0002086F3118887
:10431000BDE8F08794F94550A06B3A4649462046DF
:10432000FEF74BFF681C04D06D1C84F8455001203B
:10433000ECE7606A0028FAD004F1240000F036FBB4
:104340000028F4D0B8F1000FF1D00121C8F8001016
:10435000EDE770B50E46040009D0206C78B150200E
:1043600080F31188BFF34F8FBFF36F8FFEE75020AC
:1043700080F31188BFF34F8FBFF36F8FFEE7206884
:1043800048B9A06838B1502080F31188BFF34F8F2F
:10439000BFF36F8FFEE7FFF7ADFB5020EFF3118502
:1043A00080F31188BFF34F8FBFF36F8FA16BE06B6A
:1043B000884218D994F94500491CA163411C04D0D6
:1043C000401C84F8450001200EE0606A0028FAD005
:1043D00004F1240000F0EAFA0028F4D0002EF2D014
:1043E00001203060EFE7002085F3118870BD0000E8
:1043F0002DE9F747002683B08A46040003D0BAF1BE
:10440000000F08D011E0502080F31188BFF34F8FC8
:10441000BFF36F8FFEE7206C38B1502080F3118816
:10442000BFF34F8FBFF36F8FFEE700F0CBF9DFF8DC
:10443000F4804FF000094FF0805748B9059838B123
:10444000502080F31188BFF34F8FBFF36F8FFEE7CB
:10445000FFF7D8FAA56BC5B151462046FEF79AFE84
:104460006D1EA563206950B104F1100000F09EFAA2
:1044700028B1C8F80070BFF34F8FBFF36F8FFFF7FD
:10448000E1FA012006B0BDE8F087059808B11EB139
:1044900006E0FFF7D7FA27E06846FFF7DDFB0126C5
:1044A000FFF7D0FAFFF7A6FCFFF7ACFA94F9440047
:1044B000401C01D184F8449094F94500401C01D17E
:1044C00084F84590FFF7BEFA05A9684600F0E8F8C1
:1044D000002820460AD0FFF72FF900F09FFA204667
:1044E000FEF7BEFF0028B3D00020CBE7FEF7B8FFF1
:1044F00090B104F124000599FFF7BCFB2046FFF7BB
:104500001BF900F08BFA0028A2D1C8F80070BFF3A5
:104510004F8FBFF36F8F9BE72046FFF70DF900F039
:104520007DFA95E704ED00E02DE9F343002683B022
:104530000400354609D0206C78B1502080F31188F2
:10454000BFF34F8FBFF36F8FFEE7502080F31188CA
:10455000BFF34F8FBFF36F8FFEE700F033F9DFF843
:104560003C814FF000094FF0805748B9049838B1AA
:10457000502080F31188BFF34F8FBFF36F8FFEE79A
:10458000FFF740FAA06BC8B1401EA063206810B9C5
:10459000FFF776F9A060206950B104F1100000F037
:1045A00005FA28B1C8F80070BFF34F8FBFF36F8FC3
:1045B000FFF748FA012005B0BDE8F083049808B180
:1045C00066B10FE03DB1502080F31188BFF34F8FEB
:1045D000BFF36F8FFEE7FFF735FA5DE06846FFF740
:1045E0003BFB0126FFF72EFAFFF704FCFFF70AFA60
:1045F00094F94400401C01D184F8449094F945009A
:10460000401C01D184F84590FFF71CFA04A96846C4
:1046100000F046F80028204612D0FFF78DF800F091
:10462000FDF92046FEF71CFF0028A9D09DB3FFF737
:10463000E9F9606A50B3206B0068C0F1380126E0E8
:10464000FEF70EFFE0B1206838B9FFF7DBF9A0688C
:1046500000F070F90546FFF7F5F904F1240004991C
:10466000FFF708FB2046FFF767F800F0D7F90028AE
:1046700086D1C8F80070BFF34F8FBFF36F8F7FE70D
:104680002046FFF759F800F0C9F979E70021A06842
:10469000FFF724FB9FE7FFE700208CE704ED00E035
:1046A0002DE9F0410C46050011D0C4B1FFF7AAF97D
:1046B000174BDA686E682068911B471C17D02F686B
:1046C0001B6A9F4219D0964217D8012410E050204F
:1046D00080F31188BFF34F8FBFF36F8FFEE7502039
:1046E00080F31188BFF34F8FBFF36F8FFEE7002475
:1046F000FFF7A8F92046BDE8F081884205D9401AA5
:1047000020602846FFF7A8FAF1E700202060DCE7E8
:10471000200000202DE9FF5F8346DDE90E879946E2
:1047200016468A469000FFF73DF805001CD05C2035
:10473000FFF738F8040014D00020256384F85900EE
:10474000CDE90240CDE900874B46324651465846F6
:10475000FEF7ECFD2046FEF789FC012004B0BDE821
:10476000F09F2846FFF782F94FF0FF30F6E7F0B5EB
:1047700085B0DDE90B640A9DA6B1DCB15C2700972A
:104780002663022684F85960002604AFCDE902466C
:10479000CDE90057FEF7CAFD2046FEF767FC0498F6
:1047A00005B0F0BD502080F31188BFF34F8FBFF3E9
:1047B0006F8FFEE7502080F31188BFF34F8FBFF358
:1047C0006F8FFEE70548416919B1006B18B10020F1
:1047D0007047012070470220704700002000002031
:1047E0000148C06870470000200000202DE9F0411A
:1047F0002E4C0027206B28B1A069401CA0613846D0
:10480000BDE8F081E668761CE66013D1606B006855
:1048100038B1502080F31188BFF34F8FBFF36F8FF3
:10482000FEE7606BA16B6163A063206A401C20629D
:10483000FEF702FFA06ADFF87880864209D3606B3A
:104840000068A0B1606BC068C5686868864211D214
:10485000A0622068C06A00EB800158F8210001289E
:1048600000D90127E0690028C9D00127C7E74FF028
:10487000FF30EDE7281DFFF769F8A86A18B105F1C8
:104880001800FFF763F8E86A2169884200D92061BF
:1048900000EB800108EB8100291DFFF7A7F8E86A0B
:1048A0002168C96A8842CAD30127C8E720000020CE
:1048B000BC03002070B504004FF0000133D01B4D45
:1048C0002868844207D0502080F31188BFF34F8FAF
:1048D000BFF36F8FFEE7206D38B1401E2065E36C9B
:1048E000E26A9A421FD040B11DE0502080F3118847
:1048F000BFF34F8FBFF36F8FFEE7201DFFF726F842
:10490000E06CE062C0F13800A061E06A2969884289
:1049100000D92861064900EB800001EB8000211DD1
:10492000FFF764F80121084670BD00002000002058
:10493000BC03002070B504004FF000002BD0194DCF
:10494000E16A2A68D26A914226D2A069002804DB73
:104950002868C06AC0F13800A061134E01EB8101E4
:10496000606906EB8101884211D1201DFEF7EEFF40
:104970002868C06AE0622969884200D9286100EB92
:10498000800006EB8000211DFFF730F802E0286868
:10499000C06AE062012070BDE16C2A68D26A91426F
:1049A000F8D370BD20000020BC03002070B5C068A3
:1049B000C46854B104F118000646FEF7C7FF144D51
:1049C000286B50B13146134815E0502080F3118810
:1049D000BFF34F8FBFF36F8FFEE7201DFEF7B6FFCB
:1049E000E06A2969884200D928610B4900EB800000
:1049F00001EB8000211DFEF7F9FFE06A2968C96A12
:104A0000884202D90120E86170BD002070BD00001D
:104A10002000002044080020BC0300202DE9F047BE
:104A20002C4D00242746286B38B1FEF7EBFF286B8E
:104A3000401E2863286B40B146E0502080F3118867
:104A4000BFF34F8FBFF36F8FFEE7A968224E01209F
:104A5000D1B3A6F5916980463068E0B1F068C468CA
:104A600004F11800FEF772FF201DFEF76FFFE06AE9
:104A70002969884200D9286100EB800109EB810097
:104A8000211DFEF7B3FFE06A2968C96A8842E3D3B3
:104A9000C5F81C80E0E70CB1FEF7CEFDAC694CB167
:104AA0004FEA0806FFF7A2FE00B1EE61641EF9D1DD
:104AB0000020A861E86938B1084901273807086073
:104AC000BFF34F8FBFF36F8FFEF7BCFF3846BDE8D3
:104AD000F0870000200000204408002004ED00E0E2
:104AE00010B586B0FEF72AFB114C2068B8B1002043
:104AF0000390049005AA04A903A8FEF745FFDDE989
:104B0000032102208DE8070000230AA10B48059A23
:104B1000FFF72DFE606010B106B0012010BD5020DF
:104B200080F31188BFF34F8FBFF36F8FFEE7000054
:104B30005C000020546D7220537663001537000826
:104B40002DE9FF411E46134602000A9D4FF000006A
:104B500016D0144C2768002F0FD0CDE90013029215
:104B6000062917DAFFF72EFE02284FF000030FD0B8
:104B7000002269462068FFF7DDFA04B0BDE8F08145
:104B8000502080F31188BFF34F8FBFF36F8FFEE784
:104B90002A46EEE70023324669463846FFF77AFB9D
:104BA000EBE700005C0000206C4C000800000000F7
:104BB00000000000000000000000000000020000F3
:104BC000180000000000000000000000544C000825
:104BD00000000000000000000000000000000000D5
:104BE00000020000180000000000000000000000AB
:104BF000604C000800000000000000000000000001
:104C0000000000000002000018000000000000008A
:104C100000000000444C00080000000000000000FC
:104C2000000000000006101600061016000000002C
:104C3000000000000102030406070809000000004C
:104C40000102030452585F53656D6170686F7265AD
:104C50000000000052656D6F74655F5461736B00F6
:104C60004D6F746F725F5461736B000064656661B1
:104C7000756C745461736B00984C00080000002040
:104C8000B40000002A2D00084C4D0008B40000209C
:104C9000145200003A2D000800000000000000003F
:104CA00000000000000000000100000010000000F3
:104CB000000000000024F4000000000000000000DC
:104CC00000000000000000000000000000000000E4
:104CD00000000000000000000000000000000000D4
:104CE00000000000000000000000000000000000C4
:104CF00000000000000000000000000000000000B4
:104D000000000000000000000000000000000000A3
:104D10000000000000000000000000000000000093
:104D20000000000000000000000000000000000083
:104D3000AAAAAAAA000000000000000000000000CB
:0C4D400000000000000000000000000067
:04000005080001AD41
:00000001FF
